{
  "hash": "515c272d3dc9427a5e21f962a4b98339904b4969106d40fcb2d295b5396e6dcf",
  "confirmations": 1,
  "height": 102,
  "version": 536870912,
  "versionHex": "20000000",
  "merkleroot": "581a908aea8cb53b5b72d6fad3a06f965b4e64ddef32389d22cba305bab5d9c5",
  "time": 1783348414,
  "mediantime": 1783348413,
  "nonce": 0,
  "bits": "207fffff",
  "target": "7fffff0000000000000000000000000000000000000000000000000000000000",
  "difficulty": 4.656542373906925e-10,
  "chainwork": "00000000000000000000000000000000000000000000000000000000000000ce",
  "nTx": 2,
  "previousblockhash": "55de08730ab18272dbc60940cfcc89335f073982900f23cd3430da783c108612",
  "strippedsize": 326,
  "size": 471,
  "weight": 1449,
  "coinbase_tx": {
    "version": 2,
    "locktime": 101,
    "sequence": 4294967294,
    "coinbase": "016600",
    "witness": "0000000000000000000000000000000000000000000000000000000000000000"
  },
  "tx": [
    {
      "txid": "30208a1a5877ffadf7bf73aa2239f1481d7bae6d3b4b8e7c1d736e58ee8d851c",
      "hash": "f899a5396f7b03b266cc9c25f01565cc78f95ce2b09a478349ff826f3f4bc9b0",
      "version": 2,
      "size": 168,
      "vsize": 141,
      "weight": 564,
      "locktime": 101,
      "vin": [
        {
          "coinbase": "016600",
          "txinwitness": [
            "0000000000000000000000000000000000000000000000000000000000000000"
          ],
          "sequence": 4294967294
        }
      ],
      "vout": [
        {
          "value": 50.00000141,
          "n": 0,
          "scriptPubKey": {
            "asm": "0 238c3232a41fe5116fbcc9d645c61f0eb2122671",
            "desc": "addr(bcrt1qywxryv4yrlj3zmaue8tyt3slp6epyfn396w80l)#re045lx7",
            "hex": "0014238c3232a41fe5116fbcc9d645c61f0eb2122671",
            "address": "bcrt1qywxryv4yrlj3zmaue8tyt3slp6epyfn396w80l",
            "type": "witness_v0_keyhash"
          }
        },
        {
          "value": 0.00000000,
          "n": 1,
          "scriptPubKey": {
            "asm": "OP_RETURN aa21a9ed992888314f8b9851b2d14c0ad9b7ee55dacb9af89ecab023b30030a2b69204f1",
            "desc": "raw(6a24aa21a9ed992888314f8b9851b2d14c0ad9b7ee55dacb9af89ecab023b30030a2b69204f1)#748xrdd2",
            "hex": "6a24aa21a9ed992888314f8b9851b2d14c0ad9b7ee55dacb9af89ecab023b30030a2b69204f1",
            "type": "nulldata"
          }
        }
      ],
      "hex": "020000000001010000000000000000000000000000000000000000000000000000000000000000ffffffff03016600feffffff028df2052a01000000160014238c3232a41fe5116fbcc9d645c61f0eb21226710000000000000000266a24aa21a9ed992888314f8b9851b2d14c0ad9b7ee55dacb9af89ecab023b30030a2b69204f10120000000000000000000000000000000000000000000000000000000000000000065000000"
    },
    {
      "txid": "0255a58bf0776a89d98a119d7cb82566a4bfa851c523e67d41e02d537d5ca436",
      "hash": "639ba895cf858872606f628c5681daaa1671052b27359a6479b4b1e1a7ae47d8",
      "version": 2,
      "size": 222,
      "vsize": 141,
      "weight": 561,
      "locktime": 101,
      "vin": [
        {
          "txid": "b20b1b5337e60fc494e525973ce68840de167f97ecdd5a8ebb7b078095cb9530",
          "vout": 0,
          "scriptSig": {
            "asm": "",
            "hex": ""
          },
          "txinwitness": [
            "304402201f0e55769b50351b591d67429abf0fe6ab2a3e9e96b3d661015fc5af110a6b1f022062136c3accb8d60023872745f1df500f336605cb63fedddb3aae3bd25b19544101",
            "0369b1bd824ec62d38a7137d605041c45e6b49a0200ca8a5abb0f3a08976e5eba4"
          ],
          "prevout": {
            "generated": true,
            "height": 1,
            "value": 50.00000000,
            "scriptPubKey": {
              "asm": "0 238c3232a41fe5116fbcc9d645c61f0eb2122671",
              "desc": "addr(bcrt1qywxryv4yrlj3zmaue8tyt3slp6epyfn396w80l)#re045lx7",
              "hex": "0014238c3232a41fe5116fbcc9d645c61f0eb2122671",
              "address": "bcrt1qywxryv4yrlj3zmaue8tyt3slp6epyfn396w80l",
              "type": "witness_v0_keyhash"
            }
          },
          "sequence": 4294967293
        }
      ],
      "vout": [
        {
          "value": 48.99999859,
          "n": 0,
          "scriptPubKey": {
            "asm": "0 35e66731d32fa48f42667450574fad0093618b8d",
            "desc": "addr(bcrt1qxhnxwvwn97jg7snxw3g9wnadqzfkrzudh44waa)#xw5rkscn",
            "hex": "001435e66731d32fa48f42667450574fad0093618b8d",
            "address": "bcrt1qxhnxwvwn97jg7snxw3g9wnadqzfkrzudh44waa",
            "type": "witness_v0_keyhash"
          }
        },
        {
          "value": 1.00000000,
          "n": 1,
          "scriptPubKey": {
            "asm": "0 ce78cab551b1a3c17b99916b3cacc4c1f6aa99c2",
            "desc": "addr(bcrt1qeeuv4d23kx3uz7uej94netxyc8m24xwzv6dakm)#8r9nv3z4",
            "hex": "0014ce78cab551b1a3c17b99916b3cacc4c1f6aa99c2",
            "address": "bcrt1qeeuv4d23kx3uz7uej94netxyc8m24xwzv6dakm",
            "type": "witness_v0_keyhash"
          }
        }
      ],
      "fee": 0.00000141,
      "hex": "020000000001013095cb9580077bbb8e5addec977f16de4088e63c9725e594c40fe637531b0bb20000000000fdffffff02731010240100000016001435e66731d32fa48f42667450574fad0093618b8d00e1f50500000000160014ce78cab551b1a3c17b99916b3cacc4c1f6aa99c20247304402201f0e55769b50351b591d67429abf0fe6ab2a3e9e96b3d661015fc5af110a6b1f022062136c3accb8d60023872745f1df500f336605cb63fedddb3aae3bd25b19544101210369b1bd824ec62d38a7137d605041c45e6b49a0200ca8a5abb0f3a08976e5eba465000000"
    }
  ]
}
