{
  "in_active_chain": true,
  "txid": "dbcc2938e07c6c763e72ecf0ec8ab47300c24f96857f39d90fd1a63b81bd48ba",
  "hash": "2f018c4c13965d6f5adac7cbe8302def4a9b6d93b9edc91c5d40e3564301476f",
  "version": 2,
  "size": 222,
  "vsize": 141,
  "weight": 561,
  "locktime": 102,
  "vin": [
    {
      "txid": "0255a58bf0776a89d98a119d7cb82566a4bfa851c523e67d41e02d537d5ca436",
      "vout": 1,
      "scriptSig": {
        "asm": "",
        "hex": ""
      },
      "txinwitness": [
        "3044022073d1a0c13408dd607c5f042420ef8b3a17ee1c92fc704a6e3374d09df3097d9202207d32238f34515db023fc0e7caf66dbf79ddf08a6a78af421a351eab4e1a29da201",
        "02211b1f173c63f1b97631b0f7d4d1cf01c06d986c5b823223b590fa5f1812e319"
      ],
      "prevout": {
        "generated": false,
        "height": 102,
        "value": 1.00000000,
        "scriptPubKey": {
          "asm": "0 ce78cab551b1a3c17b99916b3cacc4c1f6aa99c2",
          "desc": "addr(bcrt1qeeuv4d23kx3uz7uej94netxyc8m24xwzv6dakm)#8r9nv3z4",
          "hex": "0014ce78cab551b1a3c17b99916b3cacc4c1f6aa99c2",
          "address": "bcrt1qeeuv4d23kx3uz7uej94netxyc8m24xwzv6dakm",
          "type": "witness_v0_keyhash"
        }
      },
      "sequence": 4294967293
    }
  ],
  "vout": [
    {
      "value": 0.59999859,
      "n": 0,
      "scriptPubKey": {
        "asm": "0 b268ae424f1317ec70618d23f450e07e6f9d31e3",
        "desc": "addr(bcrt1qkf52usj0zvt7curp353lg58q0ehe6v0rq2as7f)#q3n7qdjq",
        "hex": "0014b268ae424f1317ec70618d23f450e07e6f9d31e3",
        "address": "bcrt1qkf52usj0zvt7curp353lg58q0ehe6v0rq2as7f",
        "type": "witness_v0_keyhash"
      }
    },
    {
      "value": 0.40000000,
      "n": 1,
      "scriptPubKey": {
        "asm": "0 b50ce0fd1b59f1f96809eb4d3b0c641c4e9cf741",
        "desc": "addr(bcrt1qk5xwplgmt8clj6qfadxnkrryr38fea6p7hakzn)#2ja4upxs",
        "hex": "0014b50ce0fd1b59f1f96809eb4d3b0c641c4e9cf741",
        "address": "bcrt1qk5xwplgmt8clj6qfadxnkrryr38fea6p7hakzn",
        "type": "witness_v0_keyhash"
      }
    }
  ],
  "fee": 0.00000141,
  "hex": "0200000000010136a45c7d532de0417de623c551a8bfa46625b87c9d118ad9896a77f08ba555020100000000fdffffff027386930300000000160014b268ae424f1317ec70618d23f450e07e6f9d31e3005a620200000000160014b50ce0fd1b59f1f96809eb4d3b0c641c4e9cf74102473044022073d1a0c13408dd607c5f042420ef8b3a17ee1c92fc704a6e3374d09df3097d9202207d32238f34515db023fc0e7caf66dbf79ddf08a6a78af421a351eab4e1a29da2012102211b1f173c63f1b97631b0f7d4d1cf01c06d986c5b823223b590fa5f1812e31966000000",
  "blockhash": "2d4d995a80dc676885fc2cf18b567b0a485ef80d1cd01660192985a50ac56da4",
  "confirmations": 1,
  "time": 1783348414,
  "blocktime": 1783348414
}
