{
  "hash": "65302772c19d3b0b6a66da690a8cac192e40f5d557c1ab9d3314b19fd372a5df",
  "confirmations": 1,
  "height": 104,
  "version": 536870912,
  "versionHex": "20000000",
  "merkleroot": "96a690232a5b021e393dea9aa1651639a3e552d57a6b7fe052d06bb3b3dae125",
  "time": 1783348415,
  "mediantime": 1783348414,
  "nonce": 0,
  "bits": "207fffff",
  "target": "7fffff0000000000000000000000000000000000000000000000000000000000",
  "difficulty": 4.656542373906925e-10,
  "chainwork": "00000000000000000000000000000000000000000000000000000000000000d2",
  "nTx": 2,
  "previousblockhash": "2d4d995a80dc676885fc2cf18b567b0a485ef80d1cd01660192985a50ac56da4",
  "strippedsize": 326,
  "size": 471,
  "weight": 1449,
  "coinbase_tx": {
    "version": 2,
    "locktime": 103,
    "sequence": 4294967294,
    "coinbase": "016800",
    "witness": "0000000000000000000000000000000000000000000000000000000000000000"
  },
  "tx": [
    {
      "txid": "5c039b28a9425beccc593f289756535fcfa63aad32e713ae946b4f3c3273f7c7",
      "hash": "419eb8230c90b7be774d9741f92c0541dc0b5f03d071616565944f7f802c65d9",
      "version": 2,
      "size": 168,
      "vsize": 141,
      "weight": 564,
      "locktime": 103,
      "vin": [
        {
          "coinbase": "016800",
          "txinwitness": [
            "0000000000000000000000000000000000000000000000000000000000000000"
          ],
          "sequence": 4294967294
        }
      ],
      "vout": [
        {
          "value": 50.00000141,
          "n": 0,
          "scriptPubKey": {
            "asm": "0 238c3232a41fe5116fbcc9d645c61f0eb2122671",
            "desc": "addr(bcrt1qywxryv4yrlj3zmaue8tyt3slp6epyfn396w80l)#re045lx7",
            "hex": "0014238c3232a41fe5116fbcc9d645c61f0eb2122671",
            "address": "bcrt1qywxryv4yrlj3zmaue8tyt3slp6epyfn396w80l",
            "type": "witness_v0_keyhash"
          }
        },
        {
          "value": 0.00000000,
          "n": 1,
          "scriptPubKey": {
            "asm": "OP_RETURN aa21a9ed7d3ffdda5e72d1c64646d4319d3677b3698c04fb24043ad84f398970b623b711",
            "desc": "raw(6a24aa21a9ed7d3ffdda5e72d1c64646d4319d3677b3698c04fb24043ad84f398970b623b711)#mlrlkrhc",
            "hex": "6a24aa21a9ed7d3ffdda5e72d1c64646d4319d3677b3698c04fb24043ad84f398970b623b711",
            "type": "nulldata"
          }
        }
      ],
      "hex": "020000000001010000000000000000000000000000000000000000000000000000000000000000ffffffff03016800feffffff028df2052a01000000160014238c3232a41fe5116fbcc9d645c61f0eb21226710000000000000000266a24aa21a9ed7d3ffdda5e72d1c64646d4319d3677b3698c04fb24043ad84f398970b623b7110120000000000000000000000000000000000000000000000000000000000000000067000000"
    },
    {
      "txid": "04ea66e40946cc18d50f3b74f59a3b6d735fc6049aa2ef75c832c49c19515b53",
      "hash": "af46832b7bedc8320f3e18ad83509c86f006cab4bf5180d77d8ba894c6f42d09",
      "version": 2,
      "size": 222,
      "vsize": 141,
      "weight": 561,
      "locktime": 103,
      "vin": [
        {
          "txid": "dbcc2938e07c6c763e72ecf0ec8ab47300c24f96857f39d90fd1a63b81bd48ba",
          "vout": 1,
          "scriptSig": {
            "asm": "",
            "hex": ""
          },
          "txinwitness": [
            "30440220093ddf9298934addd7b12b0e8ed5380d9a61c2c155e9d4ba7fc6448ae8b01c7202200e5b119bb7613d356872452c30682096492a018ceffc0e2cc455ef7407d97c6101",
            "03375daae4aa9211778d4f52ae1c93ccb96e2835952c654c01035bc9ca919f37f6"
          ],
          "prevout": {
            "generated": false,
            "height": 103,
            "value": 0.40000000,
            "scriptPubKey": {
              "asm": "0 b50ce0fd1b59f1f96809eb4d3b0c641c4e9cf741",
              "desc": "addr(bcrt1qk5xwplgmt8clj6qfadxnkrryr38fea6p7hakzn)#2ja4upxs",
              "hex": "0014b50ce0fd1b59f1f96809eb4d3b0c641c4e9cf741",
              "address": "bcrt1qk5xwplgmt8clj6qfadxnkrryr38fea6p7hakzn",
              "type": "witness_v0_keyhash"
            }
          },
          "sequence": 4294967293
        }
      ],
      "vout": [
        {
          "value": 0.19999859,
          "n": 0,
          "scriptPubKey": {
            "asm": "0 14e44bf2357ac6938ada54c6db300facdec4e4d3",
            "desc": "addr(bcrt1qznjyhu340trf8zk62nrdkvq04n0vfexnzz9mj3)#vsmk70as",
            "hex": "001414e44bf2357ac6938ada54c6db300facdec4e4d3",
            "address": "bcrt1qznjyhu340trf8zk62nrdkvq04n0vfexnzz9mj3",
            "type": "witness_v0_keyhash"
          }
        },
        {
          "value": 0.20000000,
          "n": 1,
          "scriptPubKey": {
            "asm": "0 253c5843ffea738f29a1a77b9f28de424a062b4c",
            "desc": "addr(bcrt1qy579ssllafec72dp5aae72x7gf9qv26vmawkef)#k9ssfquw",
            "hex": "0014253c5843ffea738f29a1a77b9f28de424a062b4c",
            "address": "bcrt1qy579ssllafec72dp5aae72x7gf9qv26vmawkef",
            "type": "witness_v0_keyhash"
          }
        }
      ],
      "fee": 0.00000141,
      "hex": "02000000000101ba48bd813ba6d10fd9397f85964fc20073b48aecf0ec723e766c7ce03829ccdb0100000000fdffffff02732c31010000000016001414e44bf2357ac6938ada54c6db300facdec4e4d3002d310100000000160014253c5843ffea738f29a1a77b9f28de424a062b4c024730440220093ddf9298934addd7b12b0e8ed5380d9a61c2c155e9d4ba7fc6448ae8b01c7202200e5b119bb7613d356872452c30682096492a018ceffc0e2cc455ef7407d97c61012103375daae4aa9211778d4f52ae1c93ccb96e2835952c654c01035bc9ca919f37f667000000"
    }
  ]
}
